:020000040800F2
:10000000C84F00204D020008691E0008750E000848
:10001000651E000845050008F51F000800000000E7
:10002000000000000000000000000000E11E0008C9
:100030004905000800000000711E0008051F0008A7
:1000400067020008670200086702000867020008EC
:1000500067020008670200086702000867020008DC
:1000600067020008670200086702000867020008CC
:1000700067020008670200086702000867020008BC
:1000800067020008670200086702000867020008AC
:10009000670200086702000867020008670200089C
:1000A000670200086702000867020008670200088C
:1000B000670200086702000867020008670200087C
:1000C000670200086702000867020008670200086C
:1000D000670200086702000867020008670200085C
:1000E000670200086702000867020008670200084C
:1000F000670200086702000867020008670200083C
:10010000670200086702000867020008670200082B
:10011000670200086702000867020008670200081B
:10012000670200086702000867020008670200080B
:1001300067020008670200086702000867020008FB
:1001400067020008670200086702000867020008EB
:1001500067020008670200086702000867020008DB
:1001600067020008670200086702000867020008CB
:10017000670200086702000867020008000000002C
:1001800067020008670200086702000867020008AB
:10019000670200086702000867020008670200089B
:1001A00067020008670200086702000800F002F812
:1001B00000F03CF80AA090E8000C82448344AAF1C5
:1001C0000107DA4501D100F031F8AFF2090EBAE8C3
:1001D0000F0013F0010F18BFFB1A43F0010318477B
:1001E000FC3202001C330200103A24BF78C878C1E8
:1001F000FAD8520724BF30C830C144BF04680C602D
:10020000704700000023002400250026103A28BF74
:1002100078C1FBD8520728BF30C148BF0B60704778
:100220001FB503F045FE1FBD10B510BD00F04FF91E
:100230001146FFF7F5FF01F0DFFE00F06DF903B4A2
:10024000FFF7F2FF03BC00F075F900000948804792
:1002500009480047FEE7FEE7FEE7FEE7FEE7FEE7A8
:10026000FEE7FEE7FEE7FEE704480549054A064BC0
:1002700070470000E11F0008AD010008C8490020D8
:10028000C84F0020C84B0020C84B002053EA020C86
:1002900000F069802DE9F04B4FF00006002B1FBFE6
:1002A000B3FA83F503FA05F424FA05F65E4012BFAB
:1002B0001643B2FA82F502FA05F4C5F120051EBF15
:1002C00022FA05FC44EA0C04203556EA044C4FEAB5
:1002D000144418BF641C4FF000084FF0000990420E
:1002E00071EB030C39D3002919BFB1FA81F701FA78
:1002F00007F6B0FA80F700FA07F6C7F120071EBF2D
:1003000020FA07FC46EA0C062037B6FBF4FCA7EB04
:100310000507103F07F01F0BCBF120062CFA06F65D
:100320000CFA0BFB44BFB3460026202FA4BF5E4649
:100330004FF0000B5BEA060C08BF4FF0010B19EB06
:100340000B0948EB0608ABFB027C06FB02CC0BFB5F
:1003500003CCC01B71EB0C01C1E70B4602464146C2
:100360004846BDE8F08B13B5084318BF4FF0FF3087
:100370000146AFF30080BDE81C407047032A40F2FD
:10038000308010F0030C00F0158011F8013BBCF137
:10039000020F624498BF11F801CB00F8013B38BF4F
:1003A00011F8013BA2F1040298BF00F801CB38BF5D
:1003B00000F8013B11F0030300F05780083AC0F049
:1003C000088051F8043B083A51F804CBA0E8081023
:1003D000F5E7121D5CBF51F8043B40F8043BAFF356
:1003E0000080D20724BF11F8013B11F801CB48BFB0
:1003F00011F8012B24BF00F8013B00F801CB48BFE6
:1004000000F8012B704702F0FF0343EA032242EA9F
:10041000024200F002B84FF0000200B513469446C5
:100420009646203922BFA0E80C50A0E80C50B1F14C
:100430002001BFF4F7AF090728BFA0E80C5048BF60
:100440000CC05DF804EB890028BF40F8042B08BFFE
:10045000704748BF20F8022B11F0804F18BF00F8FA
:10046000012B704770477047704710B5203AC0F0B5
:100470000B80B1E81850A0E81850B1E81850A0E877
:100480001850203ABFF4F5AF5FEA027C24BFB1E810
:100490001850A0E8185044BF18C918C0BDE8104053
:1004A0005FEA827C24BF51F8043B40F8043B08BF5C
:1004B0007047D20728BF31F8023B48BF11F8012B23
:1004C00028BF20F8023B48BF00F8012B7047754653
:1004D00000F02CF8AE4605006946534620F00700B0
:1004E000854618B020B5FFF7BFFEBDE820404FF0AD
:1004F00000064FF000074FF000084FF0000BAC462D
:10050000ACE8C009ACE8C009ACE8C009ACE8C00977
:1005100021F007018D46704710B50446AFF3008007
:100520002046BDE81040FFF78ABE00000048704733
:100530001000002001491820ABBEFEE72600020093
:1005400070470000FEE7000070470000B0B50446A9
:1005500000F0EAF8054640F20000C2F20000007820
:10056000611C18BF044400BF00F0DEF8401BA0422D
:10057000FAD3B0BD2DE9F04F82B000F13E4242F215
:10058000004502F1FF77C4F202050A2243F6004E4D
:100590004FEAB726A84208BF0922C4F2010E092E6D
:1005A00038BF4FEAB7220125002600274FF0000888
:1005B000009208E008F101080437B8F1100F06F1C5
:1005C000020600F0A7800C6805FA08F914EA090F82
:1005D000F0D0D1F804B003220BF0030CACF101040D
:1005E000B240012C6FEA020A10D88268CC6802EA95
:1005F0000A02B440224382604268CBF3001422EA2C
:10060000090204FA08F42243426005E0BCF1030F3A
:1006100002D14FF0030C20E0C2688C6802EA0A02A3
:10062000B4402243BCF1020FC26016D16FF0030246
:1006300002EA58020244D2F820C007F01C050F233A
:100640000C69AB402CEA030304FA05F52B43136253
:10065000D1F804B001250BF0030C02680CFA06F384
:1006600002EA0A021A431BF4403F0260A2D00022B1
:1006700043F644030192C4F202031A684FF6084C91
:1006800042F480421A601A68CFF6FF7C02F480427E
:100690000192019A28F00302724452F80C3007F0DC
:1006A0000C050F24AC40A343009C04FA05F52B4332
:1006B00042F80C30DEF808204B6842EA090543F6A0
:1006C0000C4CDC0258BF22EA0905CEF80850C4F2EF
:1006D000010CDCF800209C0242EA090558BF22EA1E
:1006E0000905CCF80050DEF804209C0342EA090515
:1006F00058BF22EA0905CEF80450DEF80020DB03DB
:1007000042EA090558BF22EA0905CEF80050012542
:1007100050E700BF02B0BDE8F08F0000002A08BF1C
:10072000090481617047000044F2C820C2F2000051
:100730000068704740F2000044F2C821C2F2000095
:10074000C2F2000100780A68104408607047000097
:1007500080B543F60040C4F20200016841F4007124
:100760000160016841F480610160016841F48071B9
:100770000160032000F07AF80F2000F005F800F087
:1007800027F8002080BD000070B540F20006C2F2DC
:10079000000640F208013278C2F200014FF47A7389
:1007A0000968B3FBF2F20446B1FBF2F1084600F02F
:1007B0004BFB0F2C4FF0010508D838B94FF0FF3034
:1007C00021460022002500F025F87460284670BDFF
:1007D00082B0002043F640010190C4F202014A6851
:1007E00042F480424A604A6802F480420192019ACF
:1007F00000900868002240F08050086008680F21CF
:1008000000F08050009000986FF0010002B000F0FE
:1008100001B8000010B54EF60C5CCEF2000CDCF80E
:100820000030C3F3022E8EF00704042C28BF0424EA
:10083000BEF103034FF0FF3E0EFA04F438BF00236D
:10084000A14399400EFA03F39A43114300F00F02BB
:1008500000F160430901043A03F56443624400284F
:1008600048BF02F10C03197010BD00004EF60C5188
:10087000CEF200010A684FF6FF031A4060F30A2225
:1008800042F0806040F0FD700860704770B582B043
:100890000020019043F64000C4F2020001684026A7
:1008A00041F0805101600068C4F20E2600F08050D3
:1008B0000190019847F204050120C4F20005306060
:1008C000FFF732FF044600BF2868C00306D4FFF7D5
:1008D0002BFF001BB0F57A7FF6D90EE00120706087
:1008E000FFF722FF044600BF2868800308D4FFF703
:1008F0001BFF001BB0F57A7FF6D9032002B070BD54
:10090000002002B070BD00002DE9F041002800F089
:100910008B8043F60808C4F202080446D8F8F803AE
:100920000D4600F00F00884207D288F8F853D8F837
:10093000F80300F00F00A84276D12068810717D590
:10094000410705D5D8F8001041F4E051C8F800106F
:10095000010705D5D8F8001041F46041C8F800102F
:10096000D8F80010A26821F0F0011143C8F8001077
:10097000C0073FD1D8F8F80300F00F00A84207D90C
:1009800088F8F853D8F8F80300F00F00A8424BD1CC
:100990002068410707D5D8F80010E26821F4E0513B
:1009A0001143C8F80010000708D5D8F800002169E5
:1009B00020F4604040EAC100C8F8000000F054F89C
:1009C000D8F8001043F6CA62C1F30311C0F6000262
:1009D000515C40F2080220FA01F140F20400C2F238
:1009E00000000068C2F200021160FFF7CDFE002097
:1009F000BDE8F0816068811E022907D258F8081C02
:100A000089015CBF0120BDE8F08111E0012807D118
:100A100058F8081C89035CBF0120BDE8F08107E09D
:100A200058F8081C890703D40120BDE8F08100BFF5
:100A3000D8F8001021F003010843C8F80000FFF7C0
:100A400073FE064641F28837D8F80000616800F06E
:100A50000C00B0EB810F8DD0FFF766FE801BB84213
:100A6000F2D90320BDE8F08110B543F60404C4F2C6
:100A70000204606800F00C0008280BD0042819BF9D
:100A800042F20040C0F2F4004BF68020C0F28C101D
:100A900010BD00BF20682168236849024BF6802101
:100AA000C0F28C1100F03F02C3F388105CBF42F229
:100AB0000041C0F2F401A1FB00010023FFF7E6FBB7
:100AC00021680222C1F3014102EB4101B0FBF1F0C8
:100AD00010BD00002DE9F04182B0002868D0044626
:100AE000007843F60006C007C4F202060BD0B068D7
:100AF00000F00C00042840F09F803068800302D58D
:100B00006068002854D0207880071AD5B06810F0AB
:100B10000C0F09D0B06800F00C00082840F0A68047
:100B20007068400200F1A2803068800702D5E0685A
:100B300001283DD13068216920F0F80040EAC10069
:100B400030602078000737D4207840074CD4A5695E
:100B500055B3B06800F00C00082840F0BB80012DB0
:100B600026D07068E16900F480028A4220D1216AAF
:100B700000F03F028A421BD147F6C071626A014011
:100B8000B1EB821F14D1A16A4FF6FF73C9039943D9
:100B900000F44032A1F580318A4209D1E16A00F0C7
:100BA0007060B0EB016F03D1002002B0BDE8F081AE
:100BB000012002B0BDE8F0816069002840F2000029
:100BC000C4F2472076D00121C0F8801EFFF7ACFDAB
:100BD000054600BF706F8007B6D4FFF7A5FD401B28
:100BE0000228F7D9DDE000BF306C10F080580AD140
:100BF00000200190306C40F080503064306C00F088
:100C000080500190019847F20007C4F2000738684D
:100C1000C00541D4386840F480703860FFF784FD27
:100C2000054600BF3868C00536D4FFF77DFD401B80
:100C30000228F7D9B5E000BFB06800F00C00082822
:100C400003D1706840023FF558AF6068B0F5803F4F
:100C500007D0B0F5A02F40F08D80306840F48020A0
:100C60003060306840F4803030608DE0E06800280B
:100C700052D00020C4F2472001210160FFF754FD4B
:100C8000054600BF306880073FF554AFFFF74CFDC5
:100C9000401B0228F6D984E0A068012805D0052869
:100CA0004ED1306F40F004003067306F40F00100EB
:100CB00030674FE00021C0F8801EFFF735FD054684
:100CC000706F80077FF540AFFFF72EFD401B0228B5
:100CD000F6D966E00027C4F2472700203866FFF700
:100CE00023FD022D05460BD1306880015ED5FFF74C
:100CF0001BFD401B02284FF00300F5D955E700BF4C
:100D0000306880017FF550AFFFF70EFD401B0228D1
:100D10004FF00300F4D948E70020C4F24720002137
:100D20000160FFF701FD0546306880077FF509AFD8
:100D3000FFF7FAFC401B02284FF00300F4D934E718
:100D4000316F002821F001013167316F21F004017A
:100D500031674DD0FFF7E8FC054641F2883700BF08
:100D6000306F800756D4FFF7DFFC401BB842F7D93D
:100D700017E000BF3168002821F48031316031680C
:100D800021F4802131604FD0FFF7CEFC054600BF33
:100D9000306880033FF5B7AEFFF7C6FC401B642800
:100DA000F6D9032002B0BDE8F08100BF04F11C05B4
:100DB0002FCD084340EA8210D9034FF6FF729143CA
:100DC000A1F5803140EA0560084370600120386673
:100DD000FFF7AAFC044600BF306880013FF5E4AE8F
:100DE000FFF7A2FC001B02284FF00300F4D9DCE659
:100DF000FFF79AFC054641F2883700BF306F800745
:100E000008D5FFF791FC401BB8424FF00300F5D91D
:100E1000CBE600BFB8F1000F7FF499AE306C20F044
:100E20008050306493E600BFFFF77EFC054600BFAC
:100E3000306880037FF567AEFFF776FC401B6428BF
:100E40004FF00300F4D9B0E6411E0020B0EB116F63
:100E50001CBF012070474EF21002CEF2000251601A
:100E60004EF62351CEF20001F0230B700721906063
:100E700011607047FEE700002DE9F04381B00024C7
:100E8000C4F2020416468946074620461021002275
:100E90009846FFF743FC04F5806528462021002290
:100EA000FFF73CFC2A2000F0DDFE20461021012245
:100EB000FFF734FC284620210122FFF72FFC2046B3
:100EC00010210022FFF72AFC380A00F0CBFEF8B20E
:100ED00000F0C8FE204610210122FFF71FFC20462B
:100EE00010210022FFF71AFC300A00F0BBFEF0B21E
:100EF00000F0B8FE204610210122FFF70FFC20462B
:100F000010210022FFF70AFC284620210022FFF7CB
:100F100005FC2B2000F0A6FE204610210122FFF741
:100F2000FDFB284620210122FFF7F8FB2046102177
:100F30000022FFF7F3FB4FEA192000F093FE5FFA5F
:100F400089F000F08FFE204610210122FFF7E6FB1A
:100F5000204610210022FFF7E1FB4FEA182000F0A5
:100F600081FE5FFA88F000F07DFE2046102101220C
:100F7000FFF7D4FB204610210022FFF7CFFB2846C5
:100F800020210022FFF7CAFB2C2000F06BFE204638
:100F900010210122FFF7C2FB28462021012201B0C7
:100FA000BDE8F043FFF7BABB2DE9F04381B00E4630
:100FB0008146501E591E9846154682B28BB248464D
:100FC0003146FFF759FF464538BFA9450DD2089C69
:100FD0004F4600BF204600F019FE0137B8B2A842C4
:100FE000F8D30136B0B24045F2D301B0BDE8F0838A
:100FF000B0B50024C4F2020404F5406528464FF45D
:1010000080410022FFF78AFB3220FFF79FFA284633
:101010004FF480410122FFF781FB3220FFF796FA5F
:1010200028464FF400410122FFF778FB3220FFF7FA
:101030008DFA204610210022FFF770FB2046102178
:101040000022FFF76BFB04F5806528462021002273
:10105000FFF764FB112000F005FE2046102101225D
:10106000FFF75CFB284620210122FFF757FB2046B3
:1010700010210022FFF752FB284620210022FFF713
:101080004DFB112000F0EEFD204610210122FFF75C
:1010900045FB284620210122FFF740FB3220FFF7C5
:1010A00055FA204610210022FFF738FB2846202160
:1010B0000022FFF733FB362000F0D4FD204610213C
:1010C0000122FFF72BFB284620210122FFF726FBF8
:1010D000204610210022FFF721FB002000F0C2FD76
:1010E000204610210122FFF719FB20461021002283
:1010F000FFF714FB284620210022FFF70FFB3A20C0
:1011000000F0B0FD204610210122FFF707FB284622
:1011100020210122FFF702FB204610210022FFF7C9
:10112000FDFA552000F09EFD204610210122FFF718
:10113000F5FA204610210022FFF7F0FA2846202178
:101140000022FFF7EBFAB22000F08CFD20461021C0
:101150000122FFF7E3FA284620210122FFF7DEFAF9
:10116000204610210022FFF7D9FA1F2000F07AFD57
:10117000204610210122FFF7D1FA2046102100223B
:10118000FFF7CCFA1F2000F06DFD20461021012250
:10119000FFF7C4FA204610210022FFF7BFFA002013
:1011A00000F060FD204610210122FFF7B7FA20462B
:1011B00010210022FFF7B2FA332000F053FD204641
:1011C00010210122FFF7AAFA204610210022FFF782
:1011D000A5FA332000F046FD204610210122FFF73A
:1011E0009DFA204610210022FFF798FA2846202178
:1011F0000022FFF793FAB72000F034FD20461021BB
:101200000122FFF78BFA284620210122FFF786FAF8
:10121000204610210022FFF781FA352000F022FD40
:10122000204610210122FFF779FA204610210022E2
:10123000FFF774FA284620210022FFF76FFABB203F
:1012400000F010FD204610210122FFF767FA284622
:1012500020210122FFF762FA204610210022FFF729
:101260005DFA2B2000F0FEFC204610210122FFF742
:1012700055FA204610210022FFF750FA2846202177
:101280000022FFF74BFAC02000F0ECFC20461021B2
:101290000122FFF743FA284620210122FFF73EFAF8
:1012A000204610210022FFF739FA2C2000F0DAFC4A
:1012B000204610210122FFF731FA2046102100229A
:1012C000FFF72CFA284620210022FFF727FAC22038
:1012D00000F0C8FC204610210122FFF71FFA284623
:1012E00020210122FFF71AFA204610210022FFF7E1
:1012F00015FA012000F0B6FC204610210122FFF76C
:101300000DFA204610210022FFF708FA2846202176
:101310000022FFF703FAC32000F0A4FC20461021AE
:101320000122FFF7FBF9284620210122FFF7F6F9F9
:10133000204610210022FFF7F1F90F2000F092FC67
:10134000204610210122FFF7E9F920461021002252
:10135000FFF7E4F9284620210022FFF7DFF9C42037
:1013600000F080FC204610210122FFF7D7F9284623
:1013700020210122FFF7D2F9204610210022FFF799
:10138000CDF9202000F06EFC204610210122FFF74D
:10139000C5F9204610210022FFF7C0F92846202178
:1013A0000022FFF7BBF9C62000F05CFC20461021AC
:1013B0000122FFF7B3F9284620210122FFF7AEF9F9
:1013C000204610210022FFF7A9F90F2000F04AFC67
:1013D000204610210122FFF7A1F92046102100220A
:1013E000FFF79CF9284620210022FFF797F9D0202B
:1013F00000F038FC204610210122FFF78FF9284623
:1014000020210122FFF78AF9204610210022FFF750
:1014100085F9A42000F026FC204610210122FFF7C8
:101420007DF9204610210022FFF778F9A12000F075
:1014300019FC204610210122FFF770F920461021E7
:101440000022FFF76BF9284620210022FFF766F9FA
:10145000D62000F007FC204610210122FFF75EF99C
:10146000284620210122FFF759F9204610210022A9
:10147000FFF754F9A12000F0F5FB204610210122CE
:10148000FFF74CF9204610210022FFF747F92846C4
:1014900020210022FFF742F9E02000F0E3FB204684
:1014A00010210122FFF73AF9284620210122FFF7F7
:1014B00035F9204610210022FFF730F9F02000F026
:1014C000D1FB204610210122FFF728F920461021E8
:1014D0000022FFF723F9042000F0C4FB204610216E
:1014E0000122FFF71BF9204610210022FFF716F911
:1014F000072000F0B7FB204610210122FFF70EF96C
:10150000204610210022FFF709F9042000F0AAFB71
:10151000204610210122FFF701F920461021002268
:10152000FFF7FCF8042000F09DFB2046102101226B
:10153000FFF7F4F8204610210022FFF7EFF804200F
:1015400000F090FB204610210122FFF7E7F820462B
:1015500010210022FFF7E2F8252000F083FB20464F
:1015600010210122FFF7DAF8204610210022FFF7B0
:10157000D5F8332000F076FB204610210122FFF73A
:10158000CDF8204610210022FFF7C8F83C2000F0DB
:1015900069FB204610210122FFF7C0F820461021E8
:1015A0000022FFF7BBF8362000F05CFB204610213C
:1015B0000122FFF7B3F8204610210022FFF7AEF812
:1015C000142000F04FFB204610210122FFF7A6F85F
:1015D000204610210022FFF7A1F8122000F042FB64
:1015E000204610210122FFF799F820461021002201
:1015F000FFF794F8292000F035FB20461021012246
:10160000FFF78CF8204610210022FFF787F83020E2
:1016100000F028FB204610210122FFF77FF820462A
:1016200010210022FFF77AF8284620210022FFF738
:1016300075F8E12000F016FB204610210122FFF78B
:101640006DF8284620210122FFF768F82046102176
:101650000022FFF763F8F02000F004FB2046102181
:101660000122FFF75BF8204610210022FFF756F811
:10167000022000F0F7FA204610210122FFF74EF871
:10168000204610210022FFF749F8042000F0EAFA72
:10169000204610210122FFF741F8204610210022A8
:1016A000FFF73CF8052000F0DDFA2046102101226A
:1016B000FFF734F8204610210022FFF72FF805200D
:1016C00000F0D0FA204610210122FFF727F820462B
:1016D00010210022FFF722F8212000F0C3FA204653
:1016E00010210122FFF71AF8204610210022FFF7EF
:1016F00015F8252000F0B6FA204610210122FFF748
:101700000DF8204610210022FFF708F8322000F0E3
:10171000A9FA204610210122FFF700F820461021E7
:101720000022FEF7FBFF3B2000F09CFA2046102130
:101730000122FEF7F3FF204610210022FEF7EEFF04
:10174000382000F08FFA204610210122FEF7E6FF34
:10175000204610210022FEF7E1FF122000F082FA5D
:10176000204610210122FEF7D9FF20461021002239
:10177000FEF7D4FF142000F075FA20461021012254
:10178000FEF7CCFF204610210022FEF7C7FF2720DE
:1017900000F068FA204610210122FEF7BFFF204624
:1017A00010210022FEF7BAFF312000F05BFA20463C
:1017B00010210122FEF7B2FF204610210022FEF781
:1017C000ADFF284620210022FEF7A8FF212000F0CF
:1017D00049FA204610210122FEF7A0FF28462021C9
:1017E0000122FEF79BFF204610210022FEF796FF04
:1017F000284620210022FEF791FF292000F032FA2E
:10180000204610210122FEF789FF284620210122CF
:10181000BDE8B040FEF782BF2DE9F04F85B00F9EC6
:1018200081464FEA56083009049315468B4601213C
:101830005FEA487218BF01EB161000FB06F409EBD3
:1018400056000BEB06010138013982B28BB24846D3
:101850005946FFF711FB002C00F09581A6F10C0012
:10186000C1B2800140EA9100C2B2052A00F28B8128
:101870000120904010F02B0F00F085811099A5F108
:101880002000002945F60E3E43F6DA6344F24E3C52
:1018900044F63E11C0B2C0F6000EC0F60003C0F61A
:1018A000000CC0F60001039200F0C48000EB40067B
:1018B00003EB860501EB0613002702930CEB0013E4
:1018C0000EEB80104E460193009000BF032A05D016
:1018D000012A05D028462AB1009802E0029800E0CB
:1018E0000198384490F800A05FEACA700AD0B0B2FC
:1018F0001FFA8BF102460B46FFF7BEFA049800F080
:1019000085F9039A701C80B2A0EB0901414500F0F3
:1019100087805FEA8A7109D51FFA8BF102460B4670
:10192000FFF7AAFA049800F071F9039AB01C80B28C
:10193000A0EB0901414573D05FEA4A7109D51FFA4E
:101940008BF102460B46FFF797FA049800F05EF918
:10195000039AF01C80B2A0EB0901414560D05FEA18
:101960000A7109D51FFA8BF102460B46FFF784FA7C
:10197000049800F04BF9039A301D80B2A0EB0901E6
:1019800041454DD05FEACA6109D51FFA8BF1024685
:101990000B46FFF771FA049800F038F9039A701DAE
:1019A00080B2A0EB090141453AD05FEA8A6109D5CE
:1019B0001FFA8BF102460B46FFF75EFA049800F01F
:1019C00025F9039AB01D80B2A0EB0901414527D04B
:1019D0005FEA4A6109D51FFA8BF102460B46FFF711
:1019E0004BFA049800F012F9039AF01D80B2A0EBB4
:1019F0000901414514D04FFA8AF1B1F1FF3F09DCEA
:101A00001FFA8BF102460B46FFF736FA049800F0F6
:101A1000FDF8039A0836B0B2A0EB0900404502D1A8
:101A20000BF1010B4E460137013C05F101057FF436
:101A30004DAFA8E0DDF838A000EB40010EEB8017B9
:101A40000026029103EB81010CEB00104FF0000B1C
:101A50000191009072B1012A0ED0DDF81090032A96
:101A600038460DD144F63E10029AC0F6000000EB55
:101A7000021004E0019800E00098DDF81090304476
:101A80000578E807484608BF504600F0BFF80BF15C
:101A90000100C0B2B0FBF8F101FB1800002869D0CA
:101AA000A807484658BF504600F0B0F80BF10200B6
:101AB000C0B2B0FBF8F101FB180000285AD068074B
:101AC000484658BF504600F0A1F80BF10300C0B2E1
:101AD000B0FBF8F101FB180000284BD0280748465E
:101AE00058BF504600F092F80BF10400C0B2B0FBB2
:101AF000F8F101FB1800E8B3E806484658BF504625
:101B000000F084F80BF10500C0B2B0FBF8F101FB66
:101B1000180078B3A806484658BF504600F076F83B
:101B20000BF10600C0B2B0FBF8F101FB180008B3DE
:101B30006806484658BF504600F068F80BF10700A9
:101B4000C0B2B0FBF8F101FB180098B168B20028F0
:101B500058BFD14648460BF1080500F057F8E8B2E7
:101B6000B0FBF8F101FB180BBBF1000F18BFAB463F
:101B700002E000BF4FF0000B039A0136013C07F171
:101B800001077FF467AF05B0BDE8F08FB0B51C4624
:101B9000154602440B44013A013B92B29BB2FFF757
:101BA0006BF9002D18BF002C0BD004986C43851ED8
:101BB00015F8020F00F042F8687800F03FF8013C99
:101BC000F6D1B0BD2DE9F04F83B09B461378CBB171
:101BD000DDE90C9ADDF838800D4606464FEA5A07D3
:101BE000541E00BFB0B2DAB229465B46CDE9009A76
:101BF000CDF80880FFF710FEA3783E44002B04F1D7
:101C00000104EFD103B0BDE8F08F0000B0B50025AE
:101C1000C4F202050446284610210022FEF77EFD8C
:101C2000200A00F01FF8E0B200F01CF8284610214E
:101C30000122BDE8B040FEF771BD0000B0B500253F
:101C4000C4F202050446284610210022FEF766FD74
:101C5000204600F007F8284610210122BDE8B040D8
:101C6000FEF75CBDB0B540F20044C4F20204054684
:101C7000204608210022FEF751FDEA0920461021E6
:101C8000FEF74CFD204608210122FEF747FD2046C5
:101C900008210022FEF742FDC5F3801220461021E4
:101CA000FEF73CFD204608210122FEF737FD2046C5
:101CB00008210022FEF732FDC5F340122046102114
:101CC000FEF72CFD204608210122FEF727FD2046C5
:101CD00008210022FEF722FDC5F300122046102144
:101CE000FEF71CFD204608210122FEF717FD2046C5
:101CF00008210022FEF712FDC5F3C0022046102184
:101D0000FEF70CFD204608210122FEF707FD2046C4
:101D100008210022FEF702FDC5F3800220461021B3
:101D2000FEF7FCFC204608210122FEF7F7FC2046C6
:101D300008210022FEF7F2FCC5F3400220461021E4
:101D4000FEF7ECFC204608210122FEF7E7FC2046C6
:101D500008210022FEF7E2FC05F0010220461021D6
:101D6000FEF7DCFC204608210122BDE8B040FEF76A
:101D7000D5BC00002DE9F04F87B0002743F63000B6
:101D800006970197C4F202000168002641F00401A1
:101D900001600168C4F2020601F004010191019999
:101DA00001970168002241F08001016001684FF055
:101DB000100801F08001019101990197016841F03B
:101DC00001010160016801F0010101910199019790
:101DD000016841F008010160016801F0080101910A
:101DE00001990197016841F002010160006810212A
:101DF00000F00200019001983046FEF78FFC06F5D6
:101E0000406528464FF4404100224FF44049FEF718
:101E100085FC06F580642046382100224FF0380A00
:101E2000FEF77CFCCDF808800DF108084FF0010B9F
:101E300030464146CDE903B70597FEF79BFB2846A0
:101E40004146CDE9029BCDE90477FEF793FB20469E
:101E50004146CDE902ABCDE90477FEF78BFB07B035
:101E6000BDE8F08FFEE70000FEE700000000000084
:101E7000EFF30980BFF36F8F154B1A681EF0100F38
:101E800008BF20ED108A20E9F04F10602DE909000D
:101E90004FF0500080F31188BFF34F8FBFF36F8F67
:101EA00001F0CEF94FF0000080F31188BDE8090081
:101EB00019680868B0E8F04F1EF0100F08BFB0ECCA
:101EC000108A80F30988BFF36F8F704700BF00BF8F
:101ED0007000002000000000000000000000000072
:101EE000074B19680868B0E8F04F80F30988BFF322
:101EF0006F8F4FF0000080F31188704700BF00BF64
:101F00007000002080B5FEF715FC01F0E7FD012808
:101F100008BF80BDBDE8804001F0B2BA80B592B084
:101F2000002043F64001CDE90A00CDE90800059004
:101F3000CDE90300CDE901000090C4F202010A6876
:101F400042F080520A60096801F0805100910099C6
:101F5000009047F20000C4F20000016841F44041E3
:101F6000016000684FF4800100F440400090009848
:101F7000012006904FF480300D910D210790022032
:101F80000E91B4210C90CDE90F100720119006A8F6
:101F9000FEF7A0FD20B1EFF3108072B6FEE700BFA0
:101FA000FEF774FC20B1EFF3108072B6FEE700BFBD
:101FB0000F20019002200290002003904FF4A050C7
:101FC00004904FF48050059001A80521FEF79CFC79
:101FD00020B1EFF3108072B6FEE700BF12B080BDF3
:101FE0004EF68850CEF20000016841F470010160A5
:101FF00070470000FEE7000082B0FEF7A9FBFFF784
:102000008DFFFFF7B7FEFEF7F3FF0020C4F20200DA
:1020100010210022FEF782FB00200021F022F02395
:10202000FEF72AFF012040F2741C009042F6353082
:10203000C2F2000CC0F6000005A14FF400720023AC
:10204000CDF804C001F0DEFC01F07AF8FEE700BF35
:102050004C434420446973706C6179002DE9F04170
:10206000044600F061FE40F27006C2F20006F0681D
:1020700040F268250130F0603068C2F2000558B1C6
:102080003069002840F007813068E16AC06A884200
:1020900098BF3460FFE000BF3460F068012840F072
:1020A000FA80284600F0E6FD05F1140000F0E2FD9C
:1020B00005F1280000F0DEFD05F13C0000F0DAFD3E
:1020C00005F1500000F0D6FD05F1640000F0D2FDEE
:1020D00005F1780000F0CEFD05F18C0000F0CAFD9E
:1020E00005F1A00000F0C6FD05F1B40000F0C2FD4E
:1020F00005F1C80000F0BEFD05F1DC0000F0BAFDFE
:1021000005F1F00000F0B6FD05F5827000F0B2FDBB
:1021100005F58C7000F0AEFD05F5967000F0AAFD97
:1021200005F5A07000F0A6FD05F5AA7000F0A2FD6F
:1021300005F5B47000F09EFD05F5BE7000F09AFD47
:1021400005F5C87000F096FD05F5D27000F092FD1F
:1021500005F5DC7000F08EFD05F5E67000F08AFDF7
:1021600005F5F07000F086FD05F5FA7000F082FDCF
:1021700005F5027000F07EFD05F5077000F07AFDB0
:1021800005F50C7000F076FD05F5117000F072FD9C
:1021900005F5167000F06EFD05F51B7000F06AFD88
:1021A00005F5207000F066FD05F5257000F062FD74
:1021B00005F52A7000F05EFD05F52F7000F05AFD60
:1021C00005F5347000F056FD05F5397000F052FD4C
:1021D00005F53E7000F04EFD05F5437000F04AFD38
:1021E00005F5487000F046FD05F54D7000F042FD24
:1021F00005F5527000F03EFD05F5577000F03AFD10
:1022000005F55C7000F036FD05F5617000F032FDFB
:1022100005F5667000F02EFD05F56B7000F02AFDE7
:1022200005F5707000F026FD05F5757000F022FDD3
:1022300005F57A7000F01EFD05F57F7000F01AFDBF
:1022400005F5826000F016FD05F2244000F012FD55
:1022500005F5876000F00EFD05F24C4000F00AFD28
:1022600040F24C18C2F20008404600F003FD08F1AD
:102270001407384600F0FEFC06F1640000F0FAFC9A
:1022800006F13C0000F0F6FC06F1500000F0F2FC14
:10229000C6F81C8037627068716A421CE06A72601E
:1022A0008842626488BF706200EB800005EB8000AA
:1022B000211D00F021FD00F05BFD306988B1306820
:1022C000E16AC06A884228BFBDE8F0814EF604503A
:1022D000CEF200004FF080510160BFF34F8FBFF38B
:1022E0006F8FBDE8F081000040F2700540F2682673
:1022F0004EF60458C2F20005C2F20006CEF2000803
:102300004FF0805703E000BF204600F049FDA86869
:10231000D0B100F009FDA86CC468201D00F07CFC61
:10232000E8680138E860A8680138A86000F020FD7E
:1023300094F859000228EAD00128E5D070B9206B42
:1023400000F02EFDE0E700BF30680228DFD3C8F8B8
:102350000070BFF34F8FBFF36F8FD8E74FF050007F
:1023600080F31188BFF36F8FBFF34F8FFEE700003C
:102370002DE9F0470A9C8246206B16460F46DDE9A0
:1023800008599100A5229846FEF73DF8206B002FD2
:1023900000EB8600A0F1040020F0070656D0387844
:1023A00084F83400387800284BD0787884F83500E9
:1023B0007878002845D0B87884F83600B8780028B6
:1023C0003FD0F87884F83700F878D0B3387984F8BB
:1023D00038003879A8B3787984F83900787980B3EF
:1023E000B87984F83A00B87958B3F87984F83B00A2
:1023F000F87930B3387A84F83C00387A08B3787AC0
:1024000084F83D00787AE0B1B87A84F83E00B87A72
:10241000B8B1F87A84F83F00F87A90B1387B84F844
:102420004000387B68B1787B84F84100787B40B10C
:10243000B87B84F84200B87B00281CBFF87B84F886
:102440004300002084F8430003E000BF002084F82C
:1024500034000027201D372D28BF3725E562C4E949
:10246000135700F013FC04F1180000F00FFCC5F145
:102470003800A06130465146424624616462676577
:1024800084F8587000F042FBB9F1000F206018BFCB
:10249000C9F80040BDE8F08708480068006880F38C
:1024A00008884FF0000080F3148862B661B6BFF36D
:1024B0004F8FBFF36F8F00DF00BF000008ED00E01B
:1024C00081B00020009040F20C00C2F200000068D1
:1024D0004FF0500181F31188BFF36F8FBFF34F8F1F
:1024E000013007D0FEE700BF009830B9009820B94E
:1024F000009810B900980028F6D001B0704700008D
:1025000088B040F2E80AC2F2000A0DF11009EB4669
:10251000DAF8080005681DB1C068046801E000BF72
:10252000002400F085FE01F0E9FADAF81010064602
:10253000884220D3002DCAF8106051D0A6424FD354
:1025400001F0E4FBDAF80800C068C7683D1D2846C2
:1025500000F062FB97F82800410745D400F0FE0028
:1025600087F8280084E000BF6860DAF80800394680
:102570002D6100F08FFBDAF80800016831B3C06804
:10258000C56804682F1D384600F046FB296A2846B6
:10259000884795F828004007EDD5A8692044A04257
:1025A000E2D8DAF80000002800F04881002004A9F1
:1025B00031C101F093FADAF8000049460022002305
:1025C00000F0E6FF0028D6D138E100BFDAF80C10A1
:1025D000CAF81060CAE9021001F098FB1AE100BFC6
:1025E00065B1002210E000BFB8693F610119B14236
:1025F00079601FD90AF1080021E000BFDAF80C0069
:102600000068B0FA80F04209DAF80000A11B00F07F
:10261000A3FC01F07BFB002840F0FC804EF6045048
:10262000CEF200004FF080510160BFF34F8FBFF337
:102630006F8FEFE0311B814206D20AF10C00006877
:10264000294600F027FB13E0DAF80000002800F02C
:102650001381002004A991C101F040FADAF80000CA
:1026600049460022002300F093FF002800F0048177
:10267000396A38468847CDE00098B0F1FF3F07DC63
:10268000DDE90120039990470098002800F1C280FD
:10269000029E706910B1301D00F0BEFA01F02EFAF2
:1026A000DAF81010074688420DD30098CAF8107067
:1026B00009283FD9AEE000BF6860DAF8080021467B
:1026C0002D6100F0E7FADAF80800016841B3C0684C
:1026D000C568D0F800802C1D204600F09DFA296ABC
:1026E0002846884795F828004007ECD5A86940445B
:1026F0004045E1D8DAF80000002800F0958000207D
:10270000CDE90408069501F0E9F9DAF80000494638
:102710000022002300F03CFF0028D4D184E000BF59
:10272000DAF80C10CAE902100098CAF810700928EB
:1027300000F27080DFE800F00606064448620606F4
:10274000444800BF96F82800019A40F00101B069A2
:1027500086F828108318314641F8043FBB423661A1
:1027600006D997420AF1080007D293420AD204E040
:10277000BA1A824206D20AF10C00006800F08AFA06
:1027800048E000BF316A3046884796F82800400785
:1027900040D5DAF8000000285AD00198B1690696B1
:1027A00008440021CDE9041001F098F9DAF800009E
:1027B00049460022002300F0EBFE58BB48E000BF72
:1027C00096F8280022E000BF96F8280040F00101AA
:1027D000019886F828100028B06143D0384431466B
:1027E0000AF10C0241F8040F3661B84288BF0AF1C1
:1027F0000802106800F04EFA0CE000BF96F82800BE
:10280000810703D4304600F0CBFA03E000F0FE006D
:1028100086F82800DAF800005946002200F0CEFFC2
:1028200000287FF429AF73E64FF0500080F3118841
:10283000BFF36F8FBFF34F8FFEE700BF4FF0500025
:1028400080F31188BFF36F8FBFF34F8FFEE700BF98
:102850004FF0500080F31188BFF36F8FBFF34F8F9D
:10286000FEE700BF4FF0500080F31188BFF36F8F79
:10287000BFF34F8FFEE700BF4FF0500080F3118889
:10288000BFF36F8FBFF34F8FFEE70000F0B581B04D
:10289000044600F049FA94F94560012E0FDB04F17B
:1028A000240500BF286850B1284601F0F5F900283A
:1028B00018BF00F0C5FBF0B2013E0128F2D8FF2698
:1028C00084F8456000F054FA00F02EFA94F9447050
:1028D000012F0EDB04F11005286850B1284601F0E5
:1028E000DBF9002818BF00F0ABFBF8B2013F01286C
:1028F000F2D884F8446001B0BDE8F04000F038BA86
:1029000070B5044600F094FC40F2241CC2F2000CA6
:10291000DCF8040050B19CF80000002818BF4FF00C
:1029200000404FF0000574BB8DE000BF40F2C8606E
:10293000C2F20000C21D22F0070210F00701A0EB56
:10294000020318BF104600224FF47055CCE906026E
:10295000002918BF03F57055411921F00701A1F1B5
:102960000803CCF8043041E90222191AC0E9003109
:1029700001208CF800004FF00040CCE90211002C3F
:102980004FF000055FD020405DD124F0070000F13A
:102990001002600708BF04F10802002A4FF000058A
:1029A00051D0DCF8080082424DD8604650F818EF4C
:1029B000DEF8045095422CD2DEF80010C1B1744606
:1029C0004D68954218D20B68B3B15D68954217D235
:1029D0001868A8B14568954216D20468A4B1656824
:1029E000954215D22168A6460029E9D111E000BF21
:1029F0000CF118000DE000BF8E46204609E000BF34
:102A00009E46084605E000BF8646184601E000BF26
:102A1000A646DCF804108E4514D00168DEF80040AC
:102A2000AB1A112B04604DD30EEB0205680719D0C9
:102A30004FF0500080F31188BFF36F8FBFF34F8FBB
:102A4000FEE700BF002501F061F968075BD04FF099
:102A5000500080F31188BFF36F8FBFF34F8F00BF1B
:102A6000FEE700BF0CF118006B60CEF8042000BF39
:102A70000368AB420AD21868A8420BD20368AB4283
:102A800004D218681A46A842F2D304E00246184657
:102A900001E000BF1A4653686C68D618AE4202D1F6
:102AA0001C44154654602B19834207D1DCF80430CE
:102AB000984203D0D0E9000323446B60AA42286007
:102AC00018BF156001F10805DEF80400DCE9021208
:102AD000091A9142CCF8081038BFCCF80C109CF8B9
:102AE0000010002918BF40F00040CEF80400DCF8C8
:102AF000100000210130CEF80010CCF8100001F0D9
:102B000005F96807A3D1284670BD0000034642F2CC
:102B1000C140C0F600004FF0807C21F0010103E9C4
:102B200003106FF0020043F8240CA3F1440043F8B3
:102B3000202C70478AB047F2CE2447F2534B4FF611
:102B4000FF774FF0000AC0F60004C6F2754B4FF055
:102B500020090DF1200806AD04AE0CE00020002194
:102B6000F022F0230094FFF711F84FF0010A4FF420
:102B70007A7000F01BFA5FFA8AF0012842D0002830
:102B8000ECD146F66F50C0F26500099046F25750FE
:102B9000C6F26C30089046F26660C0F2650007909D
:102BA00046F64710C6F27210069046F66970CDE9F7
:102BB00004B000200021F022F0230097FEF7F4F982
:102BC0004FF0010A0A201E2142460023CDE9007978
:102BD000CDF808A0FEF7F6FF0A2046212A4600237A
:102BE000CDE90079CDF808A0FEF7ECFF0A206E21B0
:102BF00032460023CDE90079CDF808A0FEF7E2FFC8
:102C0000B5E700BF00200021F022F02300944FF030
:102C1000000AFEF7BBFFAAE7D0E9013201699A601A
:102C2000D1F804C082688445536008BF4A6000221E
:102C300002610868013808600868704744F2CC43B4
:102C4000C2F20003036044F2CC20C2F2000008602C
:102C5000802010607047000044F62813C2F2000381
:102C6000036044F22850C2F2000008604FF4807004
:102C7000106070474FF0FF31024642F8081F0021F4
:102C80004260C0E903220160704700000021016139
:102C90007047000010B5D1F800E01EF1010213D01A
:102CA00000F1080462681368734511D853681C6802
:102CB000744511D85A68146874450FD8546823684D
:102CC000A4467345EED90BE00269D2F804C007E0D0
:102CD0009446224604E000BF9C4601E094461A4612
:102CE000C1F804C0CCF808108A605160086101681E
:102CF0000131016010BD0000D0F800C043680861D8
:102D00009A684B608A609A68996051600CF1010181
:102D100001607047DFF80C00016841F47001016048
:102D20007047000088ED00E04FF0500080F31188FC
:102D3000BFF36F8FBFF34F8F40F20C00C2F2000061
:102D400001684A1C026009B1704700BF4EF604508A
:102D5000CEF200000068000608BF70474FF0500038
:102D600080F31188BFF36F8FBFF34F8FFEE7000032
:102D700040F20C00C2F20000016839B10139016073
:102D800018BF7047002080F3118870474FF0500043
:102D900080F31188BFF36F8FBFF34F8FFEE7000002
:102DA00070B5002808BF70BD40F22415C2F20005BE
:102DB0000446287854F8041C002818BF4FF000403F
:102DC00008420DD0A4F1080632689AB14FF05000C5
:102DD00080F31188BFF36F8FBFF34F8FFEE700BF03
:102DE0004FF0500080F31188BFF36F8FBFF34F8F08
:102DF000FEE700BF21EA000044F8040C00F018FAD6
:102E000054F8041CA8680844A86005F1180000BF25
:102E10000368B3420AD21868B04225D20368B342AD
:102E200004D218681A46B042F2D301E002461846AE
:102E30005368D418B44202D119441646516073182D
:102E4000834206D16B68984203D0D0E9000319444D
:102E50007160B242306018BF166068690130686105
:102E6000BDE8704000F052BF1A465368D418B4420F
:102E7000E5D1E1E74EF21000CEF200000021016042
:102E8000816040F20801C2F20001096844F6D352A1
:102E9000C1F26202A1FB02124FF0FF3101EB92116D
:102EA000416007210160704744F6841CC2F2000CA7
:102EB000DCF8002022B3634653F8082F42B3634680
:102EC00053F8102F52B3634653F8182F62B363467A
:102ED00053F8202F72B3634653F8282F82B363460A
:102EE00053F8302F92B3634653F8382F002A18BF97
:102EF0007047072219600CEBC2014860704700BFA1
:102F00000022634619600CEBC2014860704700BFA5
:102F1000012219600CEBC20148607047022219605F
:102F20000CEBC20148607047032219600CEBC20130
:102F300048607047042219600CEBC201486070477A
:102F4000052219600CEBC201486070470622196027
:102F50000CEBC2014860704770B515460E4604463A
:102F6000FFF7E2FE94F84400FF2804BF002084F835
:102F7000440094F84500FF2804BF002084F8450071
:102F8000FFF7F6FEA06B28B12046BDE87040FFF7C2
:102F90007DBC00BF04F1240031462A4600F092F8BF
:102FA0002046BDE87040FFF771BC000070B588B3E3
:102FB00040F27005C2F200050446686950B14FF056
:102FC000500080F31188BFF36F8FBFF34F8F00BFA6
:102FD000FEE700BF686901306861AE6928680430A7
:102FE000FFF71AFE2868A419446005D3286A2968E7
:102FF0000431FFF74FFE08E0E86929680431FFF764
:1030000049FEE86A844238BFEC6200F07FFE002887
:1030100018BF70BD4EF60450CEF200004FF0805144
:103020000160BFF34F8FBFF36F8F70BD40F270012F
:10303000C2F200018A6B026089694160704700003A
:1030400040F27000C2F200000121016370470000ED
:1030500070B5D8B140F27004C2F200040D46216888
:103060001831FFF717FEA66920680430FFF7D4FD7A
:10307000681C15D02068AD19456019D3206A2168F5
:103080000431BDE87040FFF705BE00BF4FF05000AF
:1030900080F31188BFF36F8FBFF34F8FFEE700BF40
:1030A00054F8500B011D2046BDE87040FFF724BEC8
:1030B000E06921680431FFF7EDFDE06A854238BF21
:1030C000E56270BDF0B581B0C0B140F27004C2F2EB
:1030D00000040D46216816461831FFF70DFEA7695A
:1030E00020680430FFF798FD96B154F8500B011D8D
:1030F000204601B0BDE8F040FFF7FEBD4FF05000A4
:1031000080F31188BFF36F8FBFF34F8FFEE700BFCF
:103110002068ED19456007D3206A2168043101B0A9
:10312000BDE8F040FFF7B6BDE06921680431FFF764
:10313000B1FDE06A854238BFE56201B0F0BD000034
:1031400010B588B00020CDE9050006A805A904AA9D
:10315000FFF774FD059800283ED0069C002C45D052
:103160005C21049A079107995C2949D1079920634A
:10317000022084F8590007A80021CDE9001042F28E
:10318000E920C0F6000028A100230294FFF7F0F820
:103190002046FEF763FF079840F27004C2F2000475
:1031A000A062B0B100F02AFE411C33D0012810D13A
:1031B0004FF0500080F31188BFF36F8FBFF34F8F34
:1031C0004FF0FF30E062012020610020A06100F09C
:1031D00095F808B010BD00BF4FF0500080F3118883
:1031E000BFF36F8FBFF34F8FFEE700BF4FF050006C
:1031F00080F31188BFF36F8FBFF34F8FFEE700BFDF
:103200004FF0500080F31188BFF36F8FBFF34F8FE3
:10321000FEE700BF4FF0500080F31188BFF36F8FBF
:10322000BFF34F8FFEE700BF49444C45000000004C
:1032300040F27000C2F20000416901314161704703
:1032400080B540F2700EC2F2000EDEF8141019B113
:103250000121CEF8301080BD0021CEF83010DEF80C
:10326000241040F2682C01EB8103C2F2000C5CF8E0
:1032700023208AB101EB81020CEB820353F8042F67
:103280005268181D82421A6020D0D068CEF8000023
:10329000CEF8241080BD00BF0CEB8302A2F12803FE
:1032A000E1B15A6922BB012918D01A6812BB022960
:1032B00014D053F8142CFAB903290FD053F8282C42
:1032C0000439002AA3F15003EAD0D3E752681A6008
:1032D000D068CEF80000CEF8241080BD4FF050002A
:1032E00080F31188BFF36F8FBFF34F8FFEE700BFEE
:1032F0000139BFE70239BDE70339BBE7B0B584B098
:103300004EF2004CCEF2000C4CF27021C4F20F11C0
:10331000DCF800294B1C9A420AD14FF0500080F390
:103320001188BFF36F8FBFF34F8F00BFFEE700BF61
:10333000DCF800298A4209D14FF0500080F311884F
:10334000BFF36F8FBFF34F8FFEE700BF9CF80010F5
:103350000291FF218CF800109CF800108DF80710E6
:103360009DF8071001F0500240F24411C2F2000132
:103370000A7007224A609DF90720B2F1FF3F69DC1D
:10338000032200BFD31C4B609DF8070040008DF85E
:1033900007009DF90700B0F1FF3F23DC931C4B6051
:1033A0009DF8070040008DF807009DF90700B0F177
:1033B000FF3F17DC531C4B609DF8070040008DF861
:1033C00007009DF90700B0F1FF3F0BDC4A609DF854
:1033D0000700043A40008DF807009DF90700002817
:1033E000D0D4131D032B35D14FF4407048600298A0
:1033F0008CF80000DCF8200940F47000CCF82009BB
:10340000DCF8200940F07040CCF82009FFF732FDCD
:1034100040F20C04C2F2000400252560FFF77AFC9C
:103420004EF63470CEF20000016841F04041016078
:10343000FFF732F8FFF704FF039520684FF05001C3
:1034400081F31188BFF36F8FBFF34F8F013011D01D
:10345000FEE700BF4FF0500080F31188BFF36F8F7D
:10346000BFF34F8FFEE700BF039830B9039820B930
:10347000039810B903980028F6D0002004B0B0BD1E
:1034800080B54FF0500080F31188BFF36F8FBFF30A
:103490004F8F00F039FB30B14EF60450CEF20000F1
:1034A0004FF080510160002080F3118880BD000042
:1034B00070B582B070B11C46B3B1F9B9F2B14FF03A
:1034C000500080F31188BFF36F8FBFF34F8F00BFA1
:1034D000FEE700BF4FF0500080F31188BFF36F8FFD
:1034E000BFF34F8FFEE700BF4FF0500080F311880D
:1034F000BFF36F8FBFF34F8FFEE700BF51B14AB9E3
:103500004FF0500080F31188BFF36F8FBFF34F8FE0
:10351000FEE700BF50230193019B502B2ED1019B4E
:10352000069E012384F84630002908BF2246226007
:10353000C4E90F01FFF7F8FB2068D4E90F1200255A
:1035400002FB0103013901FB0201A563C4E9010388
:10355000FF20E16084F8440084F8450004F1100085
:10356000FFF788FB04F12400FFF784FBFFF700FC62
:10357000204684F84C6002B070BD00BF4FF0500090
:1035800080F31188BFF36F8FBFF34F8FFEE700000A
:103590002DE9F04F83B00292C0B11D4617460E468A
:1035A0000446E9B1022D03D1E06B012840F0888088
:1035B00000F094FA10BB0FB34FF0500080F3118865
:1035C000BFF36F8FBFF34F8FFEE700BF4FF0500088
:1035D00080F31188BFF36F8FBFF34F8FFEE700BFFB
:1035E000206C0028DED04FF0500080F31188BFF32C
:1035F0006F8FBFF34F8F00BFFEE700BFFFF794FB55
:10360000A06B022D66D0E16B884263D304F11008F1
:1036100001206F460DF108090DE000BF2046FFF7BD
:1036200035F900F073FBFFF77FFBA06BE16B88427D
:103630004FF000004ED30299002973D0C00702D08A
:103640003846FFF7F3FCFFF793FBFFF7F1FDFFF7B9
:103650006BFB94F84400FF2804BF002084F844006A
:1036600094F84500FF2804BF002084F84500FFF7C8
:103670007FFB3846494600F073F9002858D1FFF720
:1036800053FBD4F838A0D4F83CB0FFF771FBDA450F
:10369000C4D102994046FFF7DBFC2046FFF7F6F85D
:1036A00000F034FB0028BED14EF60450CEF20000EC
:1036B0004FF080510160BFF34F8FBFF36F8FB2E7C0
:1036C0004FF0500080F31188BFF36F8FBFF34F8F1F
:1036D000FEE700BFA76B226CD2B19DB3E068314614
:1036E000FCF74CFEE168206C2268091A9142E16007
:1036F00003D2A16840420844E060A81EB0FA80F0FE
:1037000040093946002F18BF012108403F1A26E022
:103710002068002520BBA06800F078FAA560054667
:103720001EE000BFFFF724FB002003B0BDE8F08FD0
:103730002046FFF7ABF800F0E9FA002003B0BDE83F
:10374000F08F00BF60683146FCF718FE216CD4E9A9
:10375000010208449042606001D320686060002547
:10376000781CA06354F8240FA0B1204600F094FA0E
:1037700050B14EF60450CEF200004FF0805101607F
:10378000BFF34F8FBFF36F8FFFF7F2FA012003B043
:10379000BDE8F08F002DF7D04EF60450CEF20000B9
:1037A0004FF080510160BFF34F8FBFF36F8FFFF772
:1037B000DFFA012003B0BDE8F08F00002DE9F04FE3
:1037C00083B0029290B116460D460446002947D0B8
:1037D00000F084F9A0B99EB14FF0500080F3118839
:1037E000BFF36F8FBFF34F8FFEE700BF4FF0500066
:1037F00080F31188BFF36F8FBFF34F8FFEE700BFD9
:10380000FFF792FAD4F838A0BAF1000F36D0226C44
:1038100052B1D4E902308118E160994224BF216895
:10382000E1602846FCF7AAFDAAF10100A06354F864
:10383000100F70B1204600F02FFA50B14EF6045030
:10384000CEF200004FF080510160BFF34F8FBFF305
:103850006F8F0124FFF78CFA204603B0BDE8F08F8C
:10386000206C0028B4D04FF0500080F31188BFF3D3
:103870006F8FBFF34F8F00BFFEE700BF04F1240836
:1038800001206F464FF000090DF1080B2EE000BF3C
:10389000FFF76EFAFFF7CCFCFFF746FA94F8440006
:1038A000FF2808BF84F8449094F84500FF2808BF1B
:1038B00084F84590FFF75CFA3846594600F050F816
:1038C000E0B12046FEF7E2FF00F020FAFFF72CFA05
:1038D000A66BFFF74DFA002E3CD0FFF725FAD4F87F
:1038E00038A00020BAF1000F7FF491AF029949B3DC
:1038F000C007CDD03846FFF799FBC9E7FFF714FAA8
:10390000A66BFFF735FA2EB12046FEF7BFFF00F099
:10391000FDF9E2E702994046FFF79AFB2046FEF7E1
:10392000B5FF00F0F3F90028D7D14EF60450CEF2DF
:1039300000004FF080510160BFF34F8FBFF36F8FD6
:10394000CBE700BF0024FFF713FA204603B0BDE821
:10395000F08F00BF0024204603B0BDE8F08F0000C8
:10396000B0B5D8B10D4619B30446FFF7DDF940F202
:10397000700CC2F2000CDCF8182029684B1C21D016
:10398000D4E9000EDCF83830834221D072451FD3D1
:103990000124FFF7EDF92046B0BD00BF4FF0500005
:1039A00080F31188BFF36F8FBFF34F8FFEE700BF27
:1039B0004FF0500080F31188BFF36F8FBFF34F8F2C
:1039C000FEE700BF0024FFF7D3F92046B0BD00BFDB
:1039D000A2EB0E0291420DD9881A2860DCF838005B
:1039E0002060DCF8180060600024FFF7C1F9204671
:1039F000B0BD00BF002001242860FFF7B9F92046C0
:103A0000B0BD00002DE9F04383B007469000984612
:103A100015468946FEF774FFF8B106465C20FEF7AE
:103A20006FFFB8B10446DDE90A100022266384F86E
:103A30005920CDE90010384649462A4643460294AB
:103A4000FEF796FC2046FEF709FB012003B0BDE817
:103A5000F08300BF3046FFF7A3F94FF0FF3003B00B
:103A6000BDE8F08370B586B00B9CCCB10C9E0EB354
:103A70005C250495049D5C2D26D1049DDDF828C0AD
:103A8000022586F8595005AD3463CDE900C502968C
:103A9000FEF76EFC3046FEF7E1FA059806B070BD01
:103AA0004FF0500080F31188BFF36F8FBFF34F8F3B
:103AB000FEE700BF4FF0500080F31188BFF36F8F17
:103AC000BFF34F8FFEE700BF4FF0500080F3118827
:103AD000BFF36F8FBFF34F8FFEE7000040F270001F
:103AE000C2F20000016900290FBF01204069B0FA4D
:103AF00080F0400918BF40007047000040F270009D
:103B0000C2F20000806970472DE9F04381B040F2B5
:103B10007006C2F20006706940B1706B002401307B
:103B20007063204601B0BDE8F08300BFB06910F1BA
:103B30000109C6F8189020D3F069006850B14FF021
:103B4000500080F31188BFF36F8FBFF34F8F00BF1A
:103B5000FEE700BFF069316AF1613062B06B01309D
:103B6000B063F069006828B1F069C068C068406857
:103B700002E000BF4FF0FF30F062F06A40F26828C8
:103B80008145C2F2000801D200242EE0F069002431
:103B9000006813E0F86A716A884288BF706200EBBF
:103BA000800008EB80002946FFF7A6F8F86A316824
:103BB000C96AF269884228BF0124106890B1F0698F
:103BC000C068C7683D4655F8040F81450CD32846A8
:103BD000FFF722F8B86A0028DCD007F11800FFF7D9
:103BE0001BF8D7E74FF0FF30F0623068C06A00EB97
:103BF000800058F82000012888BF0124306B00287D
:103C000018BF0124204601B0BDE8F08370B588B12B
:103C100040F27006C2F2000604463068A0420BD0A3
:103C20004FF0500080F31188BFF36F8FBFF34F8FB9
:103C3000FEE700BF002070BD206D18B3411EE06A92
:103C4000E26C216590424FF0000008BF70BDC1B921
:103C5000251D2846FEF7E0FFE06CC0F13801E06268
:103C6000A161716A884240F2682188BF706200EBEE
:103C70008000C2F2000101EB80002946FFF73CF80A
:103C8000012070BD4FF0500080F31188BFF36F8F9B
:103C9000BFF34F8FFEE7000070B5C068C5686DB117
:103CA00005F118042046FEF7B7FF40F27006C2F295
:103CB0000006706960B106F164001AE04FF0500030
:103CC00080F31188BFF36F8FBFF34F8FFEE700BF04
:103CD0002C1D2046FEF7A0FFE86A716A884240F278
:103CE000682188BF706200EB8000C2F2000101EB26
:103CF00080002146FFF700F8E86A3168C96A884207
:103D000092BF00200120306370BD00002DE9F0411A
:103D100040F27005C2F20005686968B1FFF704F867
:103D2000686901386861686980B10024FFF720F88C
:103D30002046BDE8F08100BF4FF0500080F31188AD
:103D4000BFF36F8FBFF34F8FFEE700BFE868002817
:103D5000EBD0686E88B340F26826C2F200064FF0DE
:103D6000010800BF286FC76807F11800FEF754FF6D
:103D70003C1D2046FEF750FFF86A696A884288BFFA
:103D8000686200EB800006EB80002146FEF7B4FF7E
:103D9000F86A2968C96A884228BFC5F83080686E09
:103DA0000028DFD1E869006820B1E869C068C06810
:103DB000406801E04FF0FF30E8626C6B4CB10126C7
:103DC000FFF7A2FE002818BF2E63013CF8D10020A7
:103DD0006863286B0028A8D04EF60450CEF200008D
:103DE0004FF080510160BFF34F8F0124BFF36F8FFD
:103DF000FEF7BEFF2046BDE8F081000070B586B03A
:103E0000FEF792FF40F2E806C2F20006306808BBF7
:103E100006F114042046FEF72DFF06F1280528467A
:103E2000FEF728FF40F2781240F21823C6E9024557
:103E30000025C2F20002C2F200030A201021009500
:103E4000FFF736FB306028B143F2D641C0F60201DD
:103E5000FFF72AF8FEF78CFF3068D8B10020CDE9D3
:103E6000040005A804A903AAFEF7F6FEDDE9032075
:103E70000221059DCDE9001042F20150C0F600007C
:103E800009A100230295FFF7EDFD706010B101203C
:103E900006B070BD4FF0500080F31188BFF36F8FF4
:103EA000BFF34F8FFEE700BF546D7220537663005F
:103EB000F1EE100A4FF6FF71C0F2C03120EA0100A6
:103EC00040F04070E1EE100A704700000000000072
:103ED00000000102030406070809000000000000BA
:103EE00000000000000000000404040404000004BA
:103EF000000014140A000000000000000000000090
:103F00000A0A1F0A0A1F0A0A000000040E15050605
:103F10000C14150E0400000012150D152E2C2A127B
:103F200000000000040A0A361515291600000202D6
:103F30000100000000000000000010080804040454
:103F4000040408081000020404080808080804040F
:103F5000020000000004150E0E1504000000000011
:103F60000008083E080800000000000000000000F3
:103F700000000202010000000000003F00000000FD
:103F8000000000000000000000000002000000200F
:103F90001010080804040202010000000E111111A3
:103FA0001111110E00000000040604040404040EA4
:103FB000000000000E1111080402011F00000000A3
:103FC0000E11100C1010110E00000000080C0C0A4D
:103FD000091F081C000000001F01010F1110110E25
:103FE000000000000C12010D1311110E0000000062
:103FF0001E10080804040404000000000E11110E35
:104000001111110E000000000E11111916100906F1
:104010000000000000000400000000040000000098
:104020000000000400000004040000001008040266
:10403000020408100000000000003F003F000000E4
:104040000000000002040810100804020000000034
:104050000E11110804040004000000001C22292D88
:104060002D1D221C0000000004040C0A0A1E12333D
:10407000000000000F12120E1212120F00000000BA
:104080001E1101010101110E000000000F12121299
:104090001212120F000000001F120A0E0A02121F55
:1040A000000000001F120A0E0A02020700000000B2
:1040B0001C1201013911120C000000003312121EF3
:1040C00012121233000000001F0404040404041F31
:1040D000000000003E08080808080808090700005A
:1040E00037120A060A121237000000000702020205
:1040F0000202223F000000003B1B1B1B151515355B
:10410000000000003B1216161A1A121700000000D9
:104110000E1111111111110E000000000F12120EDC
:1041200002020207000000000E1111111117190EF2
:10413000180000000F12120E0A12123700000000C1
:104140001E1101060810110F000000001F150404C5
:104150000404040E00000000331212121212120C9A
:10416000000000003312120A0A0C040400000000D0
:10417000151515150E0A0A0A000000001B0A0A048C
:10418000040A0A1B000000001B0A0A0A0404040EA9
:10419000000000001F0908040402121F00001C0494
:1041A00004040404040404041C00000202040404C3
:1041B0000808081010000E08080808080808080871
:1041C0000E00040A000000000000000000000000D3
:1041D0000000000000000000003F0204000000009A
:1041E00000000000000000000000000C121C123C47
:1041F000000000030202020E1212120E0000000064
:104200000000001C1202120C000000181010101CFC
:104210001212123C000000000000000C121E021CD2
:10422000000000182404041E0404041E0000000002
:104230000000003C120C021C221C00030202020EB1
:104240001212123700000004040000060404040ED9
:10425000000000080800000C080808080807000310
:104260000202021A0A060A130000000704040404EA
:104270000404041F000000000000000F15151515B0
:10428000000000000000000F1212123700000000B2
:104290000000000C1212120C000000000000000FC1
:1042A0001212120E020700000000001C1212121C53
:1042B000103800000000001B06020207000000008A
:1042C0000000001E020C101E000000000004041E6E
:1042D0000404041C000000000000001B1212123C29
:1042E000000000000000001B0A0A04040000000097
:1042F00000000015150E0A0A000000000000001B57
:104300000A040A1B000000000000003312120C080F
:10431000040300000000001E0804041E000018082A
:104320000808080C08080808180008080808080801
:10433000080808080808060404040408040404041F
:104340000600160900000000000000000000000048
:10435000000000000000000000000000000000005D
:10436000000808080808080800001818000000489D
:104370006C2412000000000000000000000000009B
:10438000002424247F1212127F1212120000000057
:10439000081C2A2A0A0C1828282A2A1C08080000A7
:1043A0000022251515152A585454542200000000E7
:1043B000000C1212120A76252911916E00000006D7
:1043C00006040300000000000000000000000040A0
:1043D00020101008080808080810102040000002EB
:1043E0000408081010101010100808040200000043
:1043F000000008086B1C1C6B08080000000000008F
:104400000000080808087F080808080000000000ED
:104410000000000000000000000006060403000089
:10442000000000000000FE0000000000000000008E
:104430000000000000000000000006060000000070
:1044400080404020201010080804040202000000F0
:104450000018244242424242424224180000000016
:1044600000080E08080808080808083E00000000B8
:10447000003C4242422020100804427E000000001E
:10448000003C4242201820404042221C0000000014
:1044900000203028242422227E20207800000000E2
:1044A000007E0202021A26404042221C0000000048
:1044B00000382402021A264242422418000000005A
:1044C000007E2222101008080808080800000000DA
:1044D000003C4242422418244242423C0000000078
:1044E00000182442424264584040241C000000004E
:1044F000000000001818000000001818000000005C
:10450000000000000008000000000008080400008F
:1045100000402010080402040810204000000000A1
:10452000000000007F0000007F000000000000008D
:1045300000020408102040201008040200000000BF
:10454000003C4242464020101000181800000000B5
:10455000001C225A555555552D42221C00000000C2
:10456000000808181414243C224242E7000000000E
:10457000001F2222221E22424242221F000000006F
:10458000007C4242010101010142221C00000000A6
:10459000001F2242424242424242221F00000000CB
:1045A000003F4212121E12120242423F000000005F
:1045B000003F4212121E1212020202070000000007
:1045C000003C2222010101712122221C0000000076
:1045D00000E7424242427E42424242E7000000007F
:1045E000003E0808080808080808083E0000000007
:1045F000007C10101010101010101010110F00007F
:10460000007722120A0E0A121222227700000000FE
:1046100000070202020202020202427F00000000C2
:104620000077363636362A2A2A2A2A6B00000000FE
:1046300000E346464A4A5252526262470000000076
:10464000001C2241414141414141221C0000000027
:10465000003F424242423E020202020700000000C6
:10466000001C2241414141414D53321C6000000079
:10467000003F4242423E1212222242C70000000086
:10468000007C4242020418204042423E00000000EA
:10469000007F4908080808080808081C00000000F6
:1046A00000E74242424242424242423C0000000095
:1046B00000E74242222424141418080800000000D5
:1046C000006B494949495555362222220000000015
:1046D00000E7422424181818242442E700000000B0
:1046E00000772222141408080808081C00000000A3
:1046F000007E2120101008040442423F0000007890
:1047000008080808080808080808080878000000D1
:104710000202040408080810102020204040001E57
:104720001010101010101010101010101E00003873
:104730004400000000000000000000000000000035
:1047400000000000000000000000000000FF000664
:104750000800000000000000000000000000000051
:1047600000000000003C4278444242FC000000008F
:1047700000030202021A26424242261A00000000EA
:10478000000000000038440202024438000000002B
:104790000060404040784442424264D8000000003B
:1047A00000000000003C427E0202423C000000008B
:1047B00000F08808087E08080808083E000000008D
:1047C00000000000007C22221C023C42423C00000F
:1047D00000030202023A4642424242E70000000061
:1047E000000C0C00000E08080808083E000000003D
:1047F000003030000038202020202020221E000021
:10480000000302020272120A161222770000000050
:10481000000E0808080808080808083E0000000004
:1048200000000000007F9292929292B70000000078
:1048300000000000003B4642424242E70000000008
:1048400000000000003C42424242423C00000000A6
:1048500000000000001B26424242221E0207000008
:1048600000000000007844424242447840E00000EA
:104870000000000000774C040404041F0000000046
:1048800000000000007C42023C40423E000000006C
:1048900000000008083E0808080808300000000072
:1048A0000000000000634242424262DC000000005F
:1048B0000000000000E74224241408080000000063
:1048C0000000000000EB494955552222000000007D
:1048D00000000000007624181818246E0000000064
:1048E0000000000000E74224241418080807000014
:1048F00000000000007E22100808447E000000C076
:10490000202020202010202020202020C000101057
:1049100010101010101010101010101010100006B1
:1049200008080808081008080808080806000C32DB
:10493000C2000000000000000000000000000000B5
:104940000000000000000000000000000000000067
:104950000000000000000000000000000000000057
:104960000000000000000000000000000000000047
:104970000000000000006000600060006000600057
:1049800060006000400020002000200000000000C7
:1049900000006000600060000000000000000000F7
:1049A00000006006600630039801880044000000A3
:1049B00000000000000000000000000000000000F7
:1049C00000000000000000000000000000000000E7
:1049D0000000000000001002100210021002FE078A
:1049E000FE0708020801080108010801FE07FE078A
:1049F00004010401040104010000000000000000A3
:104A00000000000040004000F00158034C03CC03BC
:104A10004C0058007000E000C001C00140034C038E
:104A20005C034C034801F00040004000000000001F
:104A30000000000000000E010A01910091009100A9
:104A4000510051003A00AE03A00250045004480443
:104A500048044804840284030000000000000000B1
:104A600000000000000038006C006C006C006C005E
:104A70006C002C0098071C011A01330133016301FB
:104A8000E300C308C6093C07000000000000000066
:104A900000000C001C0010001000080004000000C2
:104AA0000000000000000000000000000000000006
:104AB00000000000000000000000000000000000F6
:104AC000000000040002000180008000400040005F
:104AD00020002000200020002000200020004000B6
:104AE000400080008000000100020004000000007F
:104AF0000000020004000800100010002000200048
:104B000040004000400040004000400040002000C5
:104B10002000100010000800040002000000000047
:104B2000000000000000000000004000C000400045
:104B3000460C4E0FD001F0015E0F460C40004000C5
:104B40004000000000000000000000000000000025
:104B500000000000000000000000000040004000D5
:104B6000400040004000FE0F400040004000400078
:104B700040000000000000000000000000000000F5
:104B80000000000000000000000000000000000025
:104B90000000000000000000000000000000000015
:104BA00000000C001C0010001000080004000000B1
:104BB00000000000000000000000000000000000F5
:104BC000000000000000FE070000000000000000E0
:104BD00000000000000000000000000000000000D5
:104BE00000000000000000000000000000000000C5
:104BF00000000000000000000000000000000000B5
:104C000000001C001C001C00000000000000000050
:104C10000000000400060002000300010001800003
:104C200080004000400060002000200010001000C4
:104C3000080008000C00040006000200000000004C
:104C40000000000000000000F00098010C030C03BD
:104C500006060606060606060606060606060606F4
:104C60000C030C039801F00000000000000000009D
:104C7000000000000000000040007C0060006000B8
:104C80006000600060006000600060006000600024
:104C9000600060006000FC030000000000000000F5
:104CA0000000000000000000F80084010203060379
:104CB0000603000300018001C00060002000100016
:104CC000080204020602FE030000000000000000CB
:104CD00000000000000000007800C6008601860188
:104CE00080018001C000700080010001000300030A
:104CF000060306038601F800000000000000000023
:104D0000000000000000000080018001C001A0013F
:104D1000A00190018801880184018201FE0F8001B9
:104D2000800180018001E007000000000000000019
:104D30000000000000000000FC0304000400040068
:104D400004000400F4008C010403000300030603C4
:104D5000060382018401F80000000000000000004A
:104D60000000000000000000E00118030C030C002C
:104D700004000600E60116030E06060606060606F1
:104D800004060C021803F000000000000000000000
:104D90000000000000000000F8070C0604020401F7
:104DA00000010001800080004000400040006000E1
:104DB0006000600060006000000000000000000073
:104DC0000000000000000000F8010C0306060606C3
:104DD00006060C021C03F000C8010C0306060606BA
:104DE000060606060C03F0010000000000000000AB
:104DF0000000000000000000F0000C010C0306029F
:104E000006060606060606078C0678060006000358
:104E100000030C018C01780000000000000000007D
:104E20000000000000000000000000000000000082
:104E30000000E000E000E0000000000000000000D2
:104E40000000E000E000E0000000000000000000C2
:104E50000000000000000000000000000000000052
:104E60000000600060000000000000000000000082
:104E700000000000600060004000200020000000F2
:104E8000000000000000000400020001800040005B
:104E9000200010000800040008001000200040005E
:104EA000800000010002000400000000000000007B
:104EB00000000000000000000000000000000000F2
:104EC0000000FE07000000000000FE0700000000D8
:104ED00000000000000000000000000000000000D2
:104EE0000000000000000400080010002000400046
:104EF0008000000100020004000200018000400068
:104F00002000100008000400000000000000000065
:104F10000000000000000000E0031806040C040C70
:104F20000C0C0C0C00078001400040004000000009
:104F30000000E000E000E0000000000000000000D1
:104F4000000000000000E00018030C02CC0564051E
:104F50006605A605B604B604B604B604B602E401B6
:104F60000C040C021803F000000000000000000018
:104F70000000000000000000600060005000D00051
:104F800090009000880088010801F80104030403E0
:104F90000402020202060F0F0000000000000000E1
:104FA0000000000000000000FE008C030C030C0356
:104FB0000C030C038C01FC000C030C020C060C0609
:104FC0000C060C060C03FE010000000000000000AF
:104FD0000000000000000000E00318030C060C04B1
:104FE000040406000600060006000600060006048B
:104FF0000C040C021803F000000000000000000088
:1050000000000000000000007F008C010C030C0376
:105010000C060C060C060C060C060C060C060C0600
:105020000C030C038C017F00000000000000000056
:105030000000000000000000FF0306030604060451
:10504000060086008600FE008600860086000600B8
:10505000060406040602FF03000000000000000032
:105060000000000000000000FF0306030604060421
:10507000060086008600FE00860086008600060088
:105080000600060006001F000000000000000000EF
:105090000000000000000000F00018010C020C02EB
:1050A00004020600060006000600C60F06030603FB
:1050B0000C030C031803F0000000000000000000C7
:1050C00000000000000000000F0F0606060606069E
:1050D000060606060606FE07060606060606060677
:1050E0000606060606060F0F00000000000000007E
:1050F0000000000000000000FC0360006000600091
:10510000600060006000600060006000600060009F
:10511000600060006000FC03000000000000000070
:105120000000000000000000F807C000C000C00040
:10513000C000C000C000C000C000C000C000C0006F
:10514000C000C000C000C000C60066003C000000F7
:105150000000000000000000CF038601C6004600EA
:105160002600160036002E006E004600C60086009F
:105170008601060106038F07000000000000000002
:1051800000000000000000001F00060006000600EE
:1051900006000600060006000600060006000600DF
:1051A000060406040602FF030000000000000000E1
:1051B00000000000000000000707860386038E033E
:1051C0008E034E034E034A035A035A033A03320333
:1051D00032033203120387070000000000000000C2
:1051E00000000000000000008E0F0C021C021C02D8
:1051F00034023402640264024402C402840284035E
:105200008403040304031F020000000000000000E8
:105210000000000000000000F00098010C030C02E8
:10522000060606060606060606060606060606061E
:105230000C020C039801F0000000000000000000C8
:105240000000000000000000FF000603060606063E
:105250000606060606068603FE0006000600060091
:105260000600060006001F0000000000000000000D
:105270000000000000000000F00098010C030C0288
:10528000060606060606060606060606060676064E
:105290004C02CC039801F0008007000300000000DE
:1052A0000000000000000000FF01060306060606DD
:1052B000060606060603FE004600C60086008601B6
:1052C0000603060306060F0E0000000000000000A3
:1052D0000000000000000000F8020C0306020602B5
:1052E00006000E003C00F800E00380030007020601
:1052F000020606060C03F00100000000000000009A
:105300000000000000000000FE0762046108610860
:10531000600060006000600060006000600060008D
:10532000600060006000F801000000000000000064
:1053300000000000000000001E070C020C020C021E
:105340000C020C020C020C020C020C020C020C02ED
:105350000C020C021801F000000000000000000028
:1053600000000000000000000F0706020401040115
:105370000C010C0188008800980098005000500033
:10538000700030002000200000000000000000003D
:105390000000000000000000F70E62044204460412
:1053A000460464026402E402E4029C029C01980147
:1053B00098018801880088000000000000000000BB
:1053C00000000000000000009E070C010801180109
:1053D0009000B0006000200060006000D0009000ED
:1053E0008801080104038E0700000000000000008F
:1053F00000000000000000000F0F060404020C0271
:1054000008011801B800B000700060006000600082
:10541000600060006000F801000000000000000073
:105420000000000000000000FC070C02060302015F
:105430008001800040004000200020001000180083
:1054400008040C040402FE03000000000000000039
:105450000000E003200020002000200020002000A9
:10546000200020002000200020002000200020003C
:1054700020002000200020002000E00300000000A9
:1054800000000000000004000400080008001000F4
:10549000100010002000200040004000C0008000EC
:1054A0008000000100010002000200020004000070
:1054B00000007C00400040004000400040004000F0
:1054C00040004000400040004000400040004000DC
:1054D000400040004000400040007C000000000010
:1054E00060009000080100000000000000000000C3
:1054F00000000000000000000000000000000000AC
:10550000000000000000000000000000000000009B
:10551000000000000000000000000000000000008B
:10552000000000000000000000000000000000007B
:10553000000000000000000000000000FF0F00005D
:1055400000001800600000000000000000000000E3
:10555000000000000000000000000000000000004B
:10556000000000000000000000000000000000003B
:10557000000000000000000000000000000000002B
:105580000000F0010C030C030003E0031C030E03F6
:10559000060306038E0B7C0E0000000000000000D6
:1055A00000000000000008000E000C000C000C00C1
:1055B0000C00CC013C031C060C060C060C060C0669
:1055C0000C060C021C03E4010000000000000000B7
:1055D00000000000000000000000000000000000CB
:1055E0000000F0008C018C01860106000600060018
:1055F00006020C020C01F000000000000000000098
:105600000000000000000002C003000300030003CC
:10561000000378038C030C0306030603060306034A
:10562000060304038C07780100000000000000005E
:10563000000000000000000000000000000000006A
:105640000000E001180308020C060C06FC070C0021
:105650000C0018041802E001000000000000000027
:105660000000000000000000C003600630063000AB
:105670003000FE01300030003000300030003000DB
:10568000300030003000FC0100000000000000008D
:10569000000000000000000000000000000000000A
:1056A0000000F007D8068C018C018C019801F800ED
:1056B0000C00FC00CC03060306038E03F800000078
:1056C00000000000000008000E000C000C000C00A0
:1056D0000C00EC011C030C030C030C030C030C0367
:1056E0000C030C030C039E070000000000000000E8
:1056F00000000000000000006000600000000000EA
:1057000040007C006000600060006000600060009D
:10571000600060006000FC0300000000000000006A
:105720000000000000000000C001C00100000000F7
:105730000001F00180018001800180018001800171
:1057400080018001800180018001CC007C0000008C
:1057500000000000000008000E000C000C000C000F
:105760000C008C038C008C004C006C005C008C00E6
:105770008C010C010C039E070000000000000000DB
:1057800000000000000040007C006000600060003D
:105790006000600060006000600060006000600009
:1057A000600060006000FC030000000000000000DA
:1057B00000000000000000000000000000000000E9
:1057C00000003707EE06660666066606660666068B
:1057D000660666066606FF0F000000000000000077
:1057E00000000000000000000000000000000000B9
:1057F0000000EE011C030C030C030C030C030C0350
:105800000C030C030C039E070000000000000000C6
:105810000000000000000000000000000000000088
:105820000000F00098010C030606060606060606B0
:1058300006060C030C03F00000000000000000004E
:105840000000000000000000000000000000000058
:105850000000EE011C030C060C060C060C060C06E0
:105860000C060C031C03EC010C000C003E000000B5
:105870000000000000000000000000000000000028
:10588000000078028C030C030603060306030603DC
:10589000060304038C03780300030003C007000021
:1058A00000000000000000000000000000000000F8
:1058B00000009F035806380618001800180018004A
:1058C000180018001800FF00000000000000000091
:1058D00000000000000000000000000000000000C8
:1058E0000000F0031C030C020C023800F000C0039F
:1058F000040304038C03FC0100000000000000000E
:105900000000000000000000000020002000300027
:105910003000FE0130003000300030003000300038
:10592000300030023002E001000000000000000002
:105930000000000000000000000000000000000067
:1059400008028E030C030C030C030C030C030C0362
:105950000C030C039C07780100000000000000000D
:105960000000000000000000000000000000000037
:1059700000001E070C020801080118019000B00089
:10598000B000600060002000000000000000000087
:105990000000000000000000000000000000000007
:1059A0000000F70E6204460464026402EC029C01EB
:1059B0009801980198010800000000000000000014
:1059C00000000000000000000000000000000000D7
:1059D0000000BC0718011001B00060006000E0008A
:1059E0009000080108039E0700000000000000006E
:1059F00000000000000000000000000000000000A7
:105A000000009E0708010801080190009000B00006
:105A10006000600060002000200024001C000000E6
:105A20000000000000000000000000000000000076
:105A30000000FC018401C40044006000200030002C
:105A4000180208020C03FC01000000000000000026
:105A50000000000380008000800080008000800043
:105A60008000800040002000400080008000800016
:105A70008000800080008000800000030000400063
:105A80004000400040004000400040004000400016
:105A90004000400040004000400040004000400006
:105AA0004000400040004000400040004000000036
:105AB00000000C001000100010001000100010007A
:105AC0001000100020004000200010001000100006
:105AD000100010001000100010000C00000000006A
